{
  "contractName": "CadastroPessoa",
  "abi": [
    {
      "constant": false,
      "inputs": [
        {
          "name": "_name",
          "type": "string"
        },
        {
          "name": "_email",
          "type": "string"
        },
        {
          "name": "_phone",
          "type": "string"
        }
      ],
      "name": "dadosPublicosCadastro",
      "outputs": [],
      "payable": false,
      "stateMutability": "nonpayable",
      "type": "function"
    },
    {
      "constant": false,
      "inputs": [
        {
          "name": "_pessoaID",
          "type": "string"
        },
        {
          "name": "_email",
          "type": "string"
        }
      ],
      "name": "emailCadastro",
      "outputs": [],
      "payable": false,
      "stateMutability": "nonpayable",
      "type": "function"
    },
    {
      "constant": false,
      "inputs": [
        {
          "name": "_pessoaID",
          "type": "string"
        },
        {
          "name": "_nascimento",
          "type": "string"
        }
      ],
      "name": "dataNascimentoInput",
      "outputs": [],
      "payable": false,
      "stateMutability": "nonpayable",
      "type": "function"
    },
    {
      "constant": false,
      "inputs": [
        {
          "name": "_pessoaID",
          "type": "string"
        },
        {
          "name": "_score",
          "type": "string"
        }
      ],
      "name": "scoreInput",
      "outputs": [],
      "payable": false,
      "stateMutability": "nonpayable",
      "type": "function"
    },
    {
      "constant": false,
      "inputs": [
        {
          "name": "_pessoaID",
          "type": "string"
        },
        {
          "name": "_cpf",
          "type": "string"
        }
      ],
      "name": "cpfInput",
      "outputs": [],
      "payable": false,
      "stateMutability": "nonpayable",
      "type": "function"
    },
    {
      "constant": false,
      "inputs": [
        {
          "name": "_idPessoa",
          "type": "string"
        },
        {
          "name": "_endereco",
          "type": "string"
        },
        {
          "name": "_bairro",
          "type": "string"
        },
        {
          "name": "_cep",
          "type": "string"
        },
        {
          "name": "_cidade",
          "type": "string"
        },
        {
          "name": "_uf",
          "type": "string"
        }
      ],
      "name": "enderecosInput",
      "outputs": [],
      "payable": false,
      "stateMutability": "nonpayable",
      "type": "function"
    }
  ],
  "bytecode": "0x608060405234801561001057600080fd5b50610b01806100206000396000f300608060405260043610610078576000357c0100000000000000000000000000000000000000000000000000000000900463ffffffff1680630cd1b8f51461007d5780632c4d09271461012c5780633286a4b5146101db578063491ba6b2146102d05780635a22e0cb1461037f57806393481c5e1461042e575b600080fd5b34801561008957600080fd5b5061012a600480360381019080803590602001908201803590602001908080601f0160208091040260200160405190810160405280939291908181526020018383808284378201915050505050509192919290803590602001908201803590602001908080601f01602080910402602001604051908101604052809392919081815260200183838082843782019150505050505091929192905050506105f5565b005b34801561013857600080fd5b506101d9600480360381019080803590602001908201803590602001908080601f0160208091040260200160405190810160405280939291908181526020018383808284378201915050505050509192919290803590602001908201803590602001908080601f0160208091040260200160405190810160405280939291908181526020018383808284378201915050505050509192919290505050610678565b005b3480156101e757600080fd5b506102ce600480360381019080803590602001908201803590602001908080601f0160208091040260200160405190810160405280939291908181526020018383808284378201915050505050509192919290803590602001908201803590602001908080601f0160208091040260200160405190810160405280939291908181526020018383808284378201915050505050509192919290803590602001908201803590602001908080601f01602080910402602001604051908101604052809392919081815260200183838082843782019150505050505091929192905050506106fb565b005b3480156102dc57600080fd5b5061037d600480360381019080803590602001908201803590602001908080601f0160208091040260200160405190810160405280939291908181526020018383808284378201915050505050509192919290803590602001908201803590602001908080601f0160208091040260200160405190810160405280939291908181526020018383808284378201915050505050509192919290505050610816565b005b34801561038b57600080fd5b5061042c600480360381019080803590602001908201803590602001908080601f0160208091040260200160405190810160405280939291908181526020018383808284378201915050505050509192919290803590602001908201803590602001908080601f0160208091040260200160405190810160405280939291908181526020018383808284378201915050505050509192919290505050610899565b005b34801561043a57600080fd5b506105f3600480360381019080803590602001908201803590602001908080601f0160208091040260200160405190810160405280939291908181526020018383808284378201915050505050509192919290803590602001908201803590602001908080601f0160208091040260200160405190810160405280939291908181526020018383808284378201915050505050509192919290803590602001908201803590602001908080601f0160208091040260200160405190810160405280939291908181526020018383808284378201915050505050509192919290803590602001908201803590602001908080601f0160208091040260200160405190810160405280939291908181526020018383808284378201915050505050509192919290803590602001908201803590602001908080601f0160208091040260200160405190810160405280939291908181526020018383808284378201915050505050509192919290803590602001908201803590602001908080601f016020809104026020016040519081016040528093929190818152602001838380828437820191505050505050919291929050505061091c565b005b6004604080519081016040528084815260200183815250908060018154018082558091505090600182039060005260206000209060020201600090919290919091506000820151816000019080519060200190610653929190610a30565b506020820151816001019080519060200190610670929190610a30565b505050505050565b60006040805190810160405280848152602001838152509080600181540180825580915050906001820390600052602060002090600202016000909192909190915060008201518160000190805190602001906106d6929190610a30565b5060208201518160010190805190602001906106f3929190610a30565b505050505050565b600360a0604051908101604052803373ffffffffffffffffffffffffffffffffffffffff168152602001858152602001848152602001838152602001428152509080600181540180825580915050906001820390600052602060002090600502016000909192909190915060008201518160000160006101000a81548173ffffffffffffffffffffffffffffffffffffffff021916908373ffffffffffffffffffffffffffffffffffffffff16021790555060208201518160010190805190602001906107c9929190610a30565b5060408201518160020190805190602001906107e6929190610a30565b506060820151816003019080519060200190610803929190610a30565b5060808201518160040155505050505050565b6005604080519081016040528084815260200183815250908060018154018082558091505090600182039060005260206000209060020201600090919290919091506000820151816000019080519060200190610874929190610a30565b506020820151816001019080519060200190610891929190610a30565b505050505050565b60016040805190810160405280848152602001838152509080600181540180825580915050906001820390600052602060002090600202016000909192909190915060008201518160000190805190602001906108f7929190610a30565b506020820151816001019080519060200190610914929190610a30565b505050505050565b600260c06040519081016040528087815260200186815260200185815260200184815260200183815260200188815250908060018154018082558091505090600182039060005260206000209060060201600090919290919091506000820151816000019080519060200190610993929190610a30565b5060208201518160010190805190602001906109b0929190610a30565b5060408201518160020190805190602001906109cd929190610a30565b5060608201518160030190805190602001906109ea929190610a30565b506080820151816004019080519060200190610a07929190610a30565b5060a0820151816005019080519060200190610a24929190610a30565b50505050505050505050565b828054600181600116156101000203166002900490600052602060002090601f016020900481019282601f10610a7157805160ff1916838001178555610a9f565b82800160010185558215610a9f579182015b82811115610a9e578251825591602001919060010190610a83565b5b509050610aac9190610ab0565b5090565b610ad291905b80821115610ace576000816000905550600101610ab6565b5090565b905600a165627a7a723058209a72bb9c2e770928a739f81a52fc1c50fff91f8d7ee9cc264db3eda484f7a6440029",
  "source": "pragma solidity ^0.4.0;\ncontract CadastroPessoa {\n    struct dadosPublicos{\n        address Owner;\n        string name;\n        string email;\n        string phone;\n        uint dateCreate;\n    }\n    \n    struct emailVarios {\n        string pessoaID;\n        string email;\n    }\n    \n    struct enderecoCadastro{\n        string endereco;\n        string bairro;\n        string cep;\n        string cidade;\n        string uf;\n        string idPessoa;\n    }\n    \n    struct dataNascimentoCadastro{\n        string idPessoa;\n        string nascimento;\n    }\n    \n    struct scoreCadastro{\n        string idPessoa;\n        string score;\n    }\n    \n    struct cpfCadastro{\n        string idPessoa;\n        string cpf;\n    }\n    \n    dataNascimentoCadastro[] listaDataNascimento;\n    cpfCadastro[] listaCPF;\n    enderecoCadastro[] listaEnderecos;\n    dadosPublicos[] lstdadosPublicos;\n    emailVarios[] lstEmailVarios;\n    scoreCadastro[] listaScore;\n    \n    function dadosPublicosCadastro(string _name, string _email, string _phone) public {\n\n        lstdadosPublicos.push(dadosPublicos({\n            Owner: msg.sender,\n            name: _name,\n            email: _email,\n            phone: _phone,\n            dateCreate: now\n        }));\n    }\n    \n    function emailCadastro(string _pessoaID, string _email) public {\n        lstEmailVarios.push(emailVarios({\n            pessoaID: _pessoaID,\n            email: _email\n        }));\n    }\n    \n    \n    function dataNascimentoInput(string _pessoaID, string _nascimento) public{\n        listaDataNascimento.push(dataNascimentoCadastro({\n            idPessoa: _pessoaID,\n            nascimento: _nascimento\n        }));\n        \n    }\n    \n    function scoreInput(string _pessoaID, string _score) public{\n        listaScore.push(scoreCadastro({\n            idPessoa: _pessoaID,\n            score: _score\n        }));\n    }\n    \n    function cpfInput(string _pessoaID, string _cpf) public{\n        listaCPF.push(cpfCadastro({\n            idPessoa: _pessoaID,\n            cpf: _cpf\n        }));\n        \n    }\n    \n    function enderecosInput(string _idPessoa, string _endereco, string _bairro, string _cep, string _cidade, string _uf) public{\n        listaEnderecos.push(enderecoCadastro({\n            idPessoa: _idPessoa,\n            endereco: _endereco,\n            bairro: _bairro,\n            cep: _cep,\n            cidade: _cidade,\n            uf: _uf\n        }));\n        \n    }\n}",
  "sourcePath": "/Users/thiagobutignon/Desktop/docker/novo/contracts/CadastroPessoa.sol",
  "compiler": {
    "name": "solc",
    "version": "0.4.24+commit.e67f0147.Emscripten.clang"
  },
  "schemaVersion": "2.0.1",
  "updatedAt": "2018-08-23T01:16:51.938Z"
}